{
  "contractName": "CryptoStribe",
  "abi": [
    {
      "inputs": [],
      "stateMutability": "nonpayable",
      "type": "constructor"
    },
    {
      "anonymous": false,
      "inputs": [
        {
          "indexed": true,
          "internalType": "address",
          "name": "previousOwner",
          "type": "address"
        },
        {
          "indexed": true,
          "internalType": "address",
          "name": "newOwner",
          "type": "address"
        }
      ],
      "name": "OwnershipTransferred",
      "type": "event"
    },
    {
      "anonymous": false,
      "inputs": [
        {
          "indexed": true,
          "internalType": "uint256",
          "name": "payment_id",
          "type": "uint256"
        }
      ],
      "name": "PaymentActivated",
      "type": "event"
    },
    {
      "anonymous": false,
      "inputs": [
        {
          "indexed": true,
          "internalType": "uint256",
          "name": "payment_id",
          "type": "uint256"
        },
        {
          "indexed": true,
          "internalType": "address",
          "name": "billing_address",
          "type": "address"
        },
        {
          "indexed": true,
          "internalType": "uint256",
          "name": "billing_id",
          "type": "uint256"
        },
        {
          "indexed": false,
          "internalType": "uint256",
          "name": "creation_timestamp",
          "type": "uint256"
        },
        {
          "indexed": false,
          "internalType": "uint256",
          "name": "last_payment_timestamp",
          "type": "uint256"
        },
        {
          "indexed": false,
          "internalType": "enum CryptoStribe.PaymentStatus",
          "name": "payment_status",
          "type": "uint8"
        }
      ],
      "name": "PaymentApproved",
      "type": "event"
    },
    {
      "anonymous": false,
      "inputs": [
        {
          "indexed": true,
          "internalType": "address",
          "name": "service_provider_address",
          "type": "address"
        },
        {
          "indexed": false,
          "internalType": "address",
          "name": "ERC20_address",
          "type": "address"
        },
        {
          "indexed": false,
          "internalType": "bool",
          "name": "is_native_token",
          "type": "bool"
        },
        {
          "indexed": false,
          "internalType": "uint256",
          "name": "price",
          "type": "uint256"
        },
        {
          "indexed": true,
          "internalType": "enum CryptoStribe.PaymentType",
          "name": "payment_type",
          "type": "uint8"
        },
        {
          "indexed": false,
          "internalType": "uint256",
          "name": "creation_timestamp",
          "type": "uint256"
        },
        {
          "indexed": false,
          "internalType": "uint256",
          "name": "trial_time",
          "type": "uint256"
        },
        {
          "indexed": false,
          "internalType": "uint256",
          "name": "payment_period",
          "type": "uint256"
        },
        {
          "indexed": true,
          "internalType": "uint256",
          "name": "payment_id",
          "type": "uint256"
        }
      ],
      "name": "PaymentCreated",
      "type": "event"
    },
    {
      "anonymous": false,
      "inputs": [
        {
          "indexed": true,
          "internalType": "uint256",
          "name": "payment_id",
          "type": "uint256"
        }
      ],
      "name": "PaymentDeactivated",
      "type": "event"
    },
    {
      "anonymous": false,
      "inputs": [
        {
          "indexed": true,
          "internalType": "uint256",
          "name": "payment_id",
          "type": "uint256"
        },
        {
          "indexed": true,
          "internalType": "address",
          "name": "billing_address",
          "type": "address"
        },
        {
          "indexed": true,
          "internalType": "uint256",
          "name": "billing_id",
          "type": "uint256"
        }
      ],
      "name": "PaymentExecuted",
      "type": "event"
    },
    {
      "anonymous": false,
      "inputs": [
        {
          "indexed": true,
          "internalType": "uint256",
          "name": "payment_id",
          "type": "uint256"
        },
        {
          "indexed": true,
          "internalType": "address",
          "name": "billing_address",
          "type": "address"
        },
        {
          "indexed": true,
          "internalType": "uint256",
          "name": "billing_id",
          "type": "uint256"
        }
      ],
      "name": "SubscriptionCanceled",
      "type": "event"
    },
    {
      "anonymous": false,
      "inputs": [
        {
          "indexed": true,
          "internalType": "address",
          "name": "recipient",
          "type": "address"
        },
        {
          "indexed": false,
          "internalType": "bool",
          "name": "is_native_token",
          "type": "bool"
        },
        {
          "indexed": false,
          "internalType": "uint256",
          "name": "timestamp",
          "type": "uint256"
        }
      ],
      "name": "WithdrawSuccessful",
      "type": "event"
    },
    {
      "inputs": [],
      "name": "comission_precent",
      "outputs": [
        {
          "internalType": "uint256",
          "name": "",
          "type": "uint256"
        }
      ],
      "stateMutability": "view",
      "type": "function",
      "constant": true
    },
    {
      "inputs": [],
      "name": "owner",
      "outputs": [
        {
          "internalType": "address",
          "name": "",
          "type": "address"
        }
      ],
      "stateMutability": "view",
      "type": "function",
      "constant": true
    },
    {
      "inputs": [
        {
          "internalType": "address",
          "name": "newOwner",
          "type": "address"
        }
      ],
      "name": "transferOwnership",
      "outputs": [],
      "stateMutability": "nonpayable",
      "type": "function"
    },
    {
      "stateMutability": "payable",
      "type": "receive",
      "payable": true
    },
    {
      "inputs": [],
      "name": "GetPaymentsLength",
      "outputs": [
        {
          "internalType": "uint256",
          "name": "",
          "type": "uint256"
        }
      ],
      "stateMutability": "view",
      "type": "function",
      "constant": true
    },
    {
      "inputs": [],
      "name": "GetPayersLength",
      "outputs": [
        {
          "internalType": "uint256",
          "name": "",
          "type": "uint256"
        }
      ],
      "stateMutability": "view",
      "type": "function",
      "constant": true
    },
    {
      "inputs": [
        {
          "internalType": "uint256",
          "name": "payment_id",
          "type": "uint256"
        }
      ],
      "name": "IsPaymentActive",
      "outputs": [
        {
          "internalType": "bool",
          "name": "",
          "type": "bool"
        }
      ],
      "stateMutability": "view",
      "type": "function",
      "constant": true
    },
    {
      "inputs": [
        {
          "internalType": "uint256",
          "name": "payment_id",
          "type": "uint256"
        }
      ],
      "name": "GetPayment",
      "outputs": [
        {
          "components": [
            {
              "internalType": "address",
              "name": "service_provider_address",
              "type": "address"
            },
            {
              "internalType": "address",
              "name": "ERC20_address",
              "type": "address"
            },
            {
              "internalType": "bool",
              "name": "is_native_token",
              "type": "bool"
            },
            {
              "internalType": "uint256",
              "name": "price",
              "type": "uint256"
            },
            {
              "internalType": "enum CryptoStribe.PaymentType",
              "name": "payment_type",
              "type": "uint8"
            },
            {
              "internalType": "uint256",
              "name": "creation_timestamp",
              "type": "uint256"
            },
            {
              "internalType": "uint256",
              "name": "trial_time",
              "type": "uint256"
            },
            {
              "internalType": "uint256",
              "name": "payment_period",
              "type": "uint256"
            },
            {
              "internalType": "uint256",
              "name": "payment_id",
              "type": "uint256"
            },
            {
              "internalType": "bool",
              "name": "is_active",
              "type": "bool"
            }
          ],
          "internalType": "struct CryptoStribe.Payment",
          "name": "",
          "type": "tuple"
        }
      ],
      "stateMutability": "view",
      "type": "function",
      "constant": true
    },
    {
      "inputs": [
        {
          "internalType": "uint256[]",
          "name": "payment_ids",
          "type": "uint256[]"
        }
      ],
      "name": "GetPayments",
      "outputs": [
        {
          "components": [
            {
              "internalType": "address",
              "name": "service_provider_address",
              "type": "address"
            },
            {
              "internalType": "address",
              "name": "ERC20_address",
              "type": "address"
            },
            {
              "internalType": "bool",
              "name": "is_native_token",
              "type": "bool"
            },
            {
              "internalType": "uint256",
              "name": "price",
              "type": "uint256"
            },
            {
              "internalType": "enum CryptoStribe.PaymentType",
              "name": "payment_type",
              "type": "uint8"
            },
            {
              "internalType": "uint256",
              "name": "creation_timestamp",
              "type": "uint256"
            },
            {
              "internalType": "uint256",
              "name": "trial_time",
              "type": "uint256"
            },
            {
              "internalType": "uint256",
              "name": "payment_period",
              "type": "uint256"
            },
            {
              "internalType": "uint256",
              "name": "payment_id",
              "type": "uint256"
            },
            {
              "internalType": "bool",
              "name": "is_active",
              "type": "bool"
            }
          ],
          "internalType": "struct CryptoStribe.Payment[]",
          "name": "",
          "type": "tuple[]"
        }
      ],
      "stateMutability": "view",
      "type": "function",
      "constant": true
    },
    {
      "inputs": [
        {
          "internalType": "uint256",
          "name": "payment_id",
          "type": "uint256"
        },
        {
          "internalType": "uint256",
          "name": "billing_id",
          "type": "uint256"
        }
      ],
      "name": "GetPayer",
      "outputs": [
        {
          "components": [
            {
              "internalType": "uint256",
              "name": "payment_id",
              "type": "uint256"
            },
            {
              "internalType": "address",
              "name": "billing_address",
              "type": "address"
            },
            {
              "internalType": "uint256",
              "name": "billing_id",
              "type": "uint256"
            },
            {
              "internalType": "uint256",
              "name": "creation_timestamp",
              "type": "uint256"
            },
            {
              "internalType": "uint256",
              "name": "last_payment_timestamp",
              "type": "uint256"
            },
            {
              "internalType": "enum CryptoStribe.PaymentStatus",
              "name": "payment_status",
              "type": "uint8"
            },
            {
              "internalType": "uint256",
              "name": "payer_id",
              "type": "uint256"
            }
          ],
          "internalType": "struct CryptoStribe.Payer",
          "name": "",
          "type": "tuple"
        }
      ],
      "stateMutability": "view",
      "type": "function",
      "constant": true
    },
    {
      "inputs": [
        {
          "internalType": "uint256[]",
          "name": "payment_ids",
          "type": "uint256[]"
        },
        {
          "internalType": "uint256[]",
          "name": "billing_ids",
          "type": "uint256[]"
        }
      ],
      "name": "GetPayers",
      "outputs": [
        {
          "components": [
            {
              "internalType": "uint256",
              "name": "payment_id",
              "type": "uint256"
            },
            {
              "internalType": "address",
              "name": "billing_address",
              "type": "address"
            },
            {
              "internalType": "uint256",
              "name": "billing_id",
              "type": "uint256"
            },
            {
              "internalType": "uint256",
              "name": "creation_timestamp",
              "type": "uint256"
            },
            {
              "internalType": "uint256",
              "name": "last_payment_timestamp",
              "type": "uint256"
            },
            {
              "internalType": "enum CryptoStribe.PaymentStatus",
              "name": "payment_status",
              "type": "uint8"
            },
            {
              "internalType": "uint256",
              "name": "payer_id",
              "type": "uint256"
            }
          ],
          "internalType": "struct CryptoStribe.Payer[]",
          "name": "",
          "type": "tuple[]"
        }
      ],
      "stateMutability": "view",
      "type": "function",
      "constant": true
    },
    {
      "inputs": [
        {
          "internalType": "uint256",
          "name": "payer_id",
          "type": "uint256"
        }
      ],
      "name": "GetPayerByPayerId",
      "outputs": [
        {
          "components": [
            {
              "internalType": "uint256",
              "name": "payment_id",
              "type": "uint256"
            },
            {
              "internalType": "address",
              "name": "billing_address",
              "type": "address"
            },
            {
              "internalType": "uint256",
              "name": "billing_id",
              "type": "uint256"
            },
            {
              "internalType": "uint256",
              "name": "creation_timestamp",
              "type": "uint256"
            },
            {
              "internalType": "uint256",
              "name": "last_payment_timestamp",
              "type": "uint256"
            },
            {
              "internalType": "enum CryptoStribe.PaymentStatus",
              "name": "payment_status",
              "type": "uint8"
            },
            {
              "internalType": "uint256",
              "name": "payer_id",
              "type": "uint256"
            }
          ],
          "internalType": "struct CryptoStribe.Payer",
          "name": "",
          "type": "tuple"
        }
      ],
      "stateMutability": "view",
      "type": "function",
      "constant": true
    },
    {
      "inputs": [
        {
          "internalType": "uint256[]",
          "name": "payer_ids",
          "type": "uint256[]"
        }
      ],
      "name": "GetPayersByPayersIds",
      "outputs": [
        {
          "components": [
            {
              "internalType": "uint256",
              "name": "payment_id",
              "type": "uint256"
            },
            {
              "internalType": "address",
              "name": "billing_address",
              "type": "address"
            },
            {
              "internalType": "uint256",
              "name": "billing_id",
              "type": "uint256"
            },
            {
              "internalType": "uint256",
              "name": "creation_timestamp",
              "type": "uint256"
            },
            {
              "internalType": "uint256",
              "name": "last_payment_timestamp",
              "type": "uint256"
            },
            {
              "internalType": "enum CryptoStribe.PaymentStatus",
              "name": "payment_status",
              "type": "uint8"
            },
            {
              "internalType": "uint256",
              "name": "payer_id",
              "type": "uint256"
            }
          ],
          "internalType": "struct CryptoStribe.Payer[]",
          "name": "",
          "type": "tuple[]"
        }
      ],
      "stateMutability": "view",
      "type": "function",
      "constant": true
    },
    {
      "inputs": [
        {
          "internalType": "uint256",
          "name": "payment_id",
          "type": "uint256"
        },
        {
          "internalType": "uint256",
          "name": "billing_id",
          "type": "uint256"
        }
      ],
      "name": "GetPayerStatus",
      "outputs": [
        {
          "internalType": "enum CryptoStribe.PaymentStatus",
          "name": "",
          "type": "uint8"
        }
      ],
      "stateMutability": "view",
      "type": "function",
      "constant": true
    },
    {
      "inputs": [
        {
          "internalType": "uint256",
          "name": "payment_id",
          "type": "uint256"
        }
      ],
      "name": "GetServiceProviderEarnings",
      "outputs": [
        {
          "internalType": "uint256",
          "name": "",
          "type": "uint256"
        }
      ],
      "stateMutability": "view",
      "type": "function",
      "constant": true
    },
    {
      "inputs": [
        {
          "internalType": "bool",
          "name": "is_native_token",
          "type": "bool"
        },
        {
          "internalType": "address",
          "name": "ERC20_address",
          "type": "address"
        }
      ],
      "name": "GetCommissions",
      "outputs": [
        {
          "internalType": "uint256",
          "name": "",
          "type": "uint256"
        }
      ],
      "stateMutability": "view",
      "type": "function",
      "constant": true
    },
    {
      "inputs": [
        {
          "internalType": "address",
          "name": "ERC20_address",
          "type": "address"
        },
        {
          "internalType": "bool",
          "name": "is_native_token",
          "type": "bool"
        },
        {
          "internalType": "uint256",
          "name": "price",
          "type": "uint256"
        },
        {
          "internalType": "enum CryptoStribe.PaymentType",
          "name": "payment_type",
          "type": "uint8"
        },
        {
          "internalType": "uint256",
          "name": "trial_time",
          "type": "uint256"
        },
        {
          "internalType": "uint256",
          "name": "payment_period",
          "type": "uint256"
        }
      ],
      "name": "CreatePayment",
      "outputs": [
        {
          "internalType": "uint256",
          "name": "payment_id",
          "type": "uint256"
        }
      ],
      "stateMutability": "nonpayable",
      "type": "function"
    },
    {
      "inputs": [
        {
          "internalType": "uint256",
          "name": "payment_id",
          "type": "uint256"
        }
      ],
      "name": "DeactivatePayment",
      "outputs": [
        {
          "internalType": "bool",
          "name": "",
          "type": "bool"
        }
      ],
      "stateMutability": "nonpayable",
      "type": "function"
    },
    {
      "inputs": [
        {
          "internalType": "uint256",
          "name": "payment_id",
          "type": "uint256"
        }
      ],
      "name": "ActivatePayment",
      "outputs": [
        {
          "internalType": "bool",
          "name": "",
          "type": "bool"
        }
      ],
      "stateMutability": "nonpayable",
      "type": "function"
    },
    {
      "inputs": [
        {
          "internalType": "uint256",
          "name": "payment_id",
          "type": "uint256"
        },
        {
          "internalType": "uint256",
          "name": "billing_id",
          "type": "uint256"
        }
      ],
      "name": "ApprovePayment",
      "outputs": [
        {
          "internalType": "bool",
          "name": "",
          "type": "bool"
        }
      ],
      "stateMutability": "payable",
      "type": "function",
      "payable": true
    },
    {
      "inputs": [
        {
          "internalType": "uint256",
          "name": "payment_id",
          "type": "uint256"
        },
        {
          "internalType": "uint256",
          "name": "billing_id",
          "type": "uint256"
        }
      ],
      "name": "ExecuteSubscription",
      "outputs": [
        {
          "internalType": "bool",
          "name": "",
          "type": "bool"
        }
      ],
      "stateMutability": "nonpayable",
      "type": "function"
    },
    {
      "inputs": [
        {
          "internalType": "uint256[]",
          "name": "payment_ids",
          "type": "uint256[]"
        },
        {
          "internalType": "uint256[]",
          "name": "billing_ids",
          "type": "uint256[]"
        }
      ],
      "name": "ExecuteSubscriptions",
      "outputs": [
        {
          "internalType": "bool",
          "name": "",
          "type": "bool"
        }
      ],
      "stateMutability": "nonpayable",
      "type": "function"
    },
    {
      "inputs": [
        {
          "internalType": "uint256",
          "name": "payment_id",
          "type": "uint256"
        },
        {
          "internalType": "uint256",
          "name": "billing_id",
          "type": "uint256"
        }
      ],
      "name": "CancelSubscription",
      "outputs": [
        {
          "internalType": "bool",
          "name": "",
          "type": "bool"
        }
      ],
      "stateMutability": "nonpayable",
      "type": "function"
    },
    {
      "inputs": [
        {
          "internalType": "bool",
          "name": "is_native_token",
          "type": "bool"
        },
        {
          "internalType": "address",
          "name": "ERC20_address",
          "type": "address"
        }
      ],
      "name": "Withdraw",
      "outputs": [
        {
          "internalType": "bool",
          "name": "",
          "type": "bool"
        }
      ],
      "stateMutability": "nonpayable",
      "type": "function"
    },
    {
      "inputs": [
        {
          "internalType": "address",
          "name": "ERC20_address",
          "type": "address"
        },
        {
          "internalType": "bool",
          "name": "is_native_token",
          "type": "bool"
        }
      ],
      "name": "WithdrawCommission",
      "outputs": [
        {
          "internalType": "bool",
          "name": "",
          "type": "bool"
        }
      ],
      "stateMutability": "nonpayable",
      "type": "function"
    }
  ],
  "bytecode": "0x6080604052600a6006553480156200001657600080fd5b506200002b6200002562000046565b6200004a565b6002805460019081019091558054810181556000526200009a565b3390565b600080546001600160a01b038381166001600160a01b0319831681178455604051919092169283917f8be0079c531659141344cd1fd0a4f28419497f9722a3daafe3b4186f6b6457e09190a35050565b61341380620000aa6000396000f3fe60806040526004361061014f5760003560e01c80638da5cb5b116100b6578063d1877fa31161006f578063d1877fa314610414578063d7055ba214610434578063e55a1d3f14610454578063f2fde38b14610474578063f67753ed14610496578063f74f34e3146104b657610197565b80638da5cb5b14610345578063a57a046414610367578063ad58be4d14610394578063beecddf2146103b4578063c78c2aba146103d4578063cbbd5790146103f457610197565b8063563500641161010857806356350064146102765780635685dff5146102a3578063609926ff146102d05780637218f4fd146102e557806378f0eda0146103055780638becc3fb1461032557610197565b80630af3c87c1461019c57806316354a32146101c55780631b0a17c1146101e75780631e7b4444146101fc5780632c3b66511461021c5780633cc4b8a61461024957610197565b366101975734600560006101616104d6565b6001600160a01b03166001600160a01b0316815260200190815260200160002060008282546101909190613304565b9091555050005b600080fd5b6101af6101aa366004612cd0565b6104e5565b6040516101bc9190612f3a565b60405180910390f35b3480156101d157600080fd5b506101da610cf8565b6040516101bc91906132e0565b3480156101f357600080fd5b506101da610cfe565b34801561020857600080fd5b506101da610217366004612c6c565b610d04565b34801561022857600080fd5b5061023c610237366004612ca0565b610d9b565b6040516101bc91906132d1565b34801561025557600080fd5b50610269610264366004612ca0565b610ee3565b6040516101bc91906132c3565b34801561028257600080fd5b50610296610291366004612bb4565b610feb565b6040516101bc9190612ef7565b3480156102af57600080fd5b506102c36102be366004612bb4565b6110d4565b6040516101bc9190612ea9565b3480156102dc57600080fd5b506101da6111b6565b3480156102f157600080fd5b506101da610300366004612ca0565b6111bc565b34801561031157600080fd5b506101af610320366004612ca0565b61130b565b34801561033157600080fd5b506101da610340366004612b4f565b61141b565b34801561035157600080fd5b5061035a6104d6565b6040516101bc9190612e0b565b34801561037357600080fd5b50610387610382366004612cd0565b611680565b6040516101bc9190612f55565b3480156103a057600080fd5b506101af6103af366004612c6c565b6116ca565b3480156103c057600080fd5b506101af6103cf366004612b19565b6119ef565b3480156103e057600080fd5b506101af6103ef366004612cd0565b611bdd565b34801561040057600080fd5b506102c361040f366004612bef565b611d2f565b34801561042057600080fd5b506101af61042f366004612ca0565b611f33565b34801561044057600080fd5b506101af61044f366004612ca0565b612048565b34801561046057600080fd5b5061026961046f366004612cd0565b612088565b34801561048057600080fd5b5061049461048f366004612af8565b612173565b005b3480156104a257600080fd5b506101af6104b1366004612cd0565b6121e4565b3480156104c257600080fd5b506101af6104d1366004612bef565b6126a8565b6000546001600160a01b031690565b6000828060001080156104fe57506104fb6111b6565b81105b6105235760405162461bcd60e51b815260040161051a9061312d565b60405180910390fd5b836001818154811061054557634e487b7160e01b600052603260045260246000fd5b600091825260209091206008600990920201015460ff166105785760405162461bcd60e51b815260040161051a9061328c565b6000858152600360209081526040808320878452909152902054156105af5760405162461bcd60e51b815260040161051a90612fe7565b600185815481106105d057634e487b7160e01b600052603260045260246000fd5b906000526020600020906009020160010160149054906101000a900460ff16801561062c57506001858154811061061757634e487b7160e01b600052603260045260246000fd5b90600052602060002090600902016002015434145b8061076957506001858154811061065357634e487b7160e01b600052603260045260246000fd5b906000526020600020906009020160010160149054906101000a900460ff1615801561076957506001858154811061069b57634e487b7160e01b600052603260045260246000fd5b906000526020600020906009020160020154600186815481106106ce57634e487b7160e01b600052603260045260246000fd5b60009182526020909120600160099092020101546001600160a01b031663dd62ed3e6106f861276e565b306040518363ffffffff1660e01b8152600401610716929190612e1f565b60206040518083038186803b15801561072e57600080fd5b505afa158015610742573d6000803e3d6000fd5b505050506040513d601f19601f820116820180604052508101906107669190612cb8565b10155b6107855760405162461bcd60e51b815260040161051a906130f6565b600280546040805160e08101909152878152909190602081016107a661276e565b6001600160a01b03168152602001878152602001428152602001428152602001600060018a815481106107e957634e487b7160e01b600052603260045260246000fd5b9060005260206000209060090201600501541161080757600261080a565b60015b600481111561082957634e487b7160e01b600052602160045260246000fd5b8152602090810184905282546001808201855560009485529382902083516007909202019081559082015181840180546001600160a01b0319166001600160a01b039092169190911790556040820151600282015560608201516003820155608082015160048083019190915560a0830151600583018054949593949193909260ff199092169184908111156108cf57634e487b7160e01b600052602160045260246000fd5b021790555060c09190910151600690910155600086815260036020908152604080832088845290915290208190558461090661276e565b6001600160a01b0316877f6573b41c86619061bd458429f5b7d3b290184024a674438cd58dc04a64b031604242600060018d8154811061095657634e487b7160e01b600052603260045260246000fd5b90600052602060002090600902016005015411610974576002610977565b60015b604051610986939291906132e9565b60405180910390a460018087815481106109b057634e487b7160e01b600052603260045260246000fd5b600091825260209091206003600990920201015460ff1660018111156109e657634e487b7160e01b600052602160045260246000fd5b148015610a2f575060018681548110610a0f57634e487b7160e01b600052603260045260246000fd5b906000526020600020906009020160010160149054906101000a900460ff165b15610b0457600080610a7260018981548110610a5b57634e487b7160e01b600052603260045260246000fd5b906000526020600020906009020160020154612772565b8092508193505050816005600060018b81548110610aa057634e487b7160e01b600052603260045260246000fd5b600091825260208083206009909202909101546001600160a01b0316835282019290925260400181208054909190610ad9908490613304565b925050819055508060086000828254610af29190613304565b9091555060019650610cf09350505050565b60018681548110610b2557634e487b7160e01b600052603260045260246000fd5b906000526020600020906009020160010160149054906101000a900460ff16158015610b83575060018681548110610b6d57634e487b7160e01b600052603260045260246000fd5b9060005260206000209060090201600501546000145b15610c4d57610c4560018781548110610bac57634e487b7160e01b600052603260045260246000fd5b60009182526020909120600160099092020101546001600160a01b0316610bd161276e565b3060018a81548110610bf357634e487b7160e01b600052603260045260246000fd5b90600052602060002090600902016002015460018b81548110610c2657634e487b7160e01b600052603260045260246000fd5b60009182526020909120600990910201546001600160a01b03166127a6565b935050610cf0565b600060018781548110610c7057634e487b7160e01b600052603260045260246000fd5b600091825260209091206003600990920201015460ff166001811115610ca657634e487b7160e01b600052602160045260246000fd5b148015610ce55750600060018781548110610cd157634e487b7160e01b600052603260045260246000fd5b906000526020600020906009020160050154115b156101975760019350505b505092915050565b60025490565b60065481565b6000828015610d1a57506001600160a01b038216155b80610d4f575082158015610d3657506001600160a01b03821615155b8015610d4f5750610d4f826001600160a01b03166128ba565b610d6b5760405162461bcd60e51b815260040161051a9061301e565b8215610d7a5750600854610d95565b506001600160a01b0381166000908152600760205260409020545b92915050565b610da361298f565b81806000108015610dba5750610db76111b6565b81105b610dd65760405162461bcd60e51b815260040161051a9061312d565b60018381548110610df757634e487b7160e01b600052603260045260246000fd5b60009182526020918290206040805161014081018252600990930290910180546001600160a01b0390811684526001808301549182169585019590955260ff600160a01b90910481161515928401929092526002810154606084015260038101549293909260808501921690811115610e8057634e487b7160e01b600052602160045260246000fd5b6001811115610e9f57634e487b7160e01b600052602160045260246000fd5b81526004820154602082015260058201546040820152600682015460608201526007820154608082015260089091015460ff16151560a09091015291505b50919050565b610eeb6129e4565b610ef3610cf8565b8210610f115760405162461bcd60e51b815260040161051a90612fbb565b60028281548110610f3257634e487b7160e01b600052603260045260246000fd5b60009182526020918290206040805160e08101825260079093029091018054835260018101546001600160a01b031693830193909352600283015490820152600382015460608201526004808301546080830152600583015491929160a084019160ff90911690811115610fb657634e487b7160e01b600052602160045260246000fd5b6004811115610fd557634e487b7160e01b600052602160045260246000fd5b815260200160068201548152505090505b919050565b60606000825167ffffffffffffffff81111561101757634e487b7160e01b600052604160045260246000fd5b60405190808252806020026020018201604052801561105057816020015b61103d61298f565b8152602001906001900390816110355790505b50905060005b83518110156110cd5761108f84828151811061108257634e487b7160e01b600052603260045260246000fd5b6020026020010151610d9b565b8282815181106110af57634e487b7160e01b600052603260045260246000fd5b602002602001018190525080806110c590613372565b915050611056565b5092915050565b60606000825167ffffffffffffffff81111561110057634e487b7160e01b600052604160045260246000fd5b60405190808252806020026020018201604052801561113957816020015b6111266129e4565b81526020019060019003908161111e5790505b50905060005b83518110156110cd5761117884828151811061116b57634e487b7160e01b600052603260045260246000fd5b6020026020010151610ee3565b82828151811061119857634e487b7160e01b600052603260045260246000fd5b602002602001018190525080806111ae90613372565b91505061113f565b60015490565b6000818060001080156111d557506111d26111b6565b81105b6111f15760405162461bcd60e51b815260040161051a9061312d565b60006001848154811061121457634e487b7160e01b600052603260045260246000fd5b6000918252602090912060099091020154600180546001600160a01b039092169250908590811061125557634e487b7160e01b600052603260045260246000fd5b906000526020600020906009020160010160149054906101000a900460ff1615611298576001600160a01b03166000908152600560205260409020549150610edd565b6001600160a01b038116600090815260046020526040812060018054919291879081106112d557634e487b7160e01b600052603260045260246000fd5b60009182526020808320600992909202909101600101546001600160a01b03168352820192909252604001902054949350505050565b600061131561276e565b6001600160a01b03166113266104d6565b6001600160a01b03161461134c5760405162461bcd60e51b815260040161051a9061318b565b8180600010801561136357506113606111b6565b81105b61137f5760405162461bcd60e51b815260040161051a9061312d565b61138883612048565b156113a55760405162461bcd60e51b815260040161051a906131e9565b60018084815481106113c757634e487b7160e01b600052603260045260246000fd5b60009182526020822060099190910201600801805460ff19169215159290921790915560405184917f68da186bddb156eb6bcd31c3fab809ac679c1475a233560e48fb432b8c0e473391a250600192915050565b600085801561143157506001600160a01b038716155b8061146657508515801561144d57506001600160a01b03871615155b80156114665750611466876001600160a01b03166128ba565b6114825760405162461bcd60e51b815260040161051a9061301e565b600061148c61276e565b905060018054905091506001604051806101400160405280836001600160a01b031681526020018a6001600160a01b0316815260200189151581526020018881526020018760018111156114f057634e487b7160e01b600052602160045260246000fd5b815242602080830191909152604080830189905260608084018990526080808501899052600160a090950185905286548086018855600097885296849020865160099098020180546001600160a01b03199081166001600160a01b03998a16178255948701518187018054958901519590961698169790971760ff60a01b1916600160a01b93151593909302929092179092559083015160028501558201516003840180549394939192909160ff19169083818111156115c057634e487b7160e01b600052602160045260246000fd5b021790555060a0820151600482015560c0820151600582015560e082015160068201556101008201516007820155610120909101516008909101805460ff19169115159190911790558185600181111561162a57634e487b7160e01b600052602160045260246000fd5b826001600160a01b03167f79f51728347980481ee785f4ccf81b1884947f143014be4946d8711ceed2dbfe8b8b8b428b8b60405161166d96959493929190612e5d565b60405180910390a4509695505050505050565b6000600261168e84846128eb565b815481106116ac57634e487b7160e01b600052603260045260246000fd5b600091825260209091206007909102016005015460ff169392505050565b600082801561170557506000600560006116e261276e565b6001600160a01b03166001600160a01b0316815260200190815260200160002054115b8061174e57508215801561174e575060006004600061172261276e565b6001600160a01b0390811682526020808301939093526040918201600090812091871681529252902054115b61176a5760405162461bcd60e51b815260040161051a90612f63565b8280156117a3575060006005600061178061276e565b6001600160a01b03166001600160a01b0316815260200190815260200160002054115b15611844576000600560006117b661276e565b6001600160a01b03166001600160a01b031681526020019081526020016000205490506117e161276e565b6001600160a01b03166108fc829081150290604051600060405180830381858888f19350505050158015611819573d6000803e3d6000fd5b5060006005600061182861276e565b6001600160a01b03168152602081019190915260400160002055505b82158015611887575060006004600061185b61276e565b6001600160a01b0390811682526020808301939093526040918201600090812091871681529252902054115b1561199c57816001600160a01b031663a9059cbb6118a361276e565b600460006118af61276e565b6001600160a01b03166001600160a01b031681526020019081526020016000206000866001600160a01b03166001600160a01b03168152602001908152602001600020546040518363ffffffff1660e01b8152600401611910929190612e90565b602060405180830381600087803b15801561192a57600080fd5b505af115801561193e573d6000803e3d6000fd5b505050506040513d601f19601f820116820180604052508101906119629190612c50565b5060006004600061197161276e565b6001600160a01b03908116825260208083019390935260409182016000908120918716815292529020555b6119a461276e565b6001600160a01b03167fe62fa35d4b3c50ae3b3729f71e70c306a11f279604a1a736ae60457384bf44f884426040516119de929190612f45565b60405180910390a250600192915050565b60006119f961276e565b6001600160a01b0316611a0a6104d6565b6001600160a01b031614611a305760405162461bcd60e51b815260040161051a9061318b565b818015611a3f57506000600854115b80611a6a575081158015611a6a57506001600160a01b03831660009081526007602052604090205415155b611a865760405162461bcd60e51b815260040161051a90612f63565b8115611adb57600854611a9761276e565b6001600160a01b03166108fc829081150290604051600060405180830381858888f19350505050158015611acf573d6000803e3d6000fd5b50506000600855611b9b565b826001600160a01b031663a9059cbb611af261276e565b6001600160a01b038616600090815260076020526040908190205490516001600160e01b031960e085901b168152611b2e929190600401612e90565b602060405180830381600087803b158015611b4857600080fd5b505af1158015611b5c573d6000803e3d6000fd5b505050506040513d601f19601f82011682018060405250810190611b809190612c50565b506001600160a01b0383166000908152600760205260408120555b611ba361276e565b6001600160a01b03167fe62fa35d4b3c50ae3b3729f71e70c306a11f279604a1a736ae60457384bf44f883426040516119de929190612f45565b600080611bea84846128eb565b9050611bf461276e565b6001600160a01b031660028281548110611c1e57634e487b7160e01b600052603260045260246000fd5b60009182526020909120600160079092020101546001600160a01b031614611c585760405162461bcd60e51b815260040161051a9061315b565b600460028281548110611c7b57634e487b7160e01b600052603260045260246000fd5b60009182526020909120600560079092020101805460ff19166001836004811115611cb657634e487b7160e01b600052602160045260246000fd5b02179055508260028281548110611cdd57634e487b7160e01b600052603260045260246000fd5b600091825260208220600160079092020101546040516001600160a01b039091169187917f3784f77e8e883de95b5d47cd713ced01229fa74d118c0a462224bcb0516d43f19190a45060019392505050565b60608151835114611d525760405162461bcd60e51b815260040161051a9061307b565b6000835167ffffffffffffffff811115611d7c57634e487b7160e01b600052604160045260246000fd5b604051908082528060200260200182016040528015611db557816020015b611da26129e4565b815260200190600190039081611d9a5790505b50905060005b8451811015611f2b576002611e1e868381518110611de957634e487b7160e01b600052603260045260246000fd5b6020026020010151868481518110611e1157634e487b7160e01b600052603260045260246000fd5b60200260200101516128eb565b81548110611e3c57634e487b7160e01b600052603260045260246000fd5b60009182526020918290206040805160e08101825260079093029091018054835260018101546001600160a01b031693830193909352600283015490820152600382015460608201526004808301546080830152600583015491929160a084019160ff90911690811115611ec057634e487b7160e01b600052602160045260246000fd5b6004811115611edf57634e487b7160e01b600052602160045260246000fd5b8152602001600682015481525050828281518110611f0d57634e487b7160e01b600052603260045260246000fd5b60200260200101819052508080611f2390613372565b915050611dbb565b509392505050565b6000611f3d61276e565b6001600160a01b0316611f4e6104d6565b6001600160a01b031614611f745760405162461bcd60e51b815260040161051a9061318b565b81806000108015611f8b5750611f886111b6565b81105b611fa75760405162461bcd60e51b815260040161051a9061312d565b611fb083612048565b1515600114611fd15760405162461bcd60e51b815260040161051a90613220565b600060018481548110611ff457634e487b7160e01b600052603260045260246000fd5b60009182526020822060099190910201600801805460ff19169215159290921790915560405184917f5de7652c803f899d73eca38308831b64b2f6733ae218210f13046f725b66d4cc91a250600192915050565b60006001828154811061206b57634e487b7160e01b600052603260045260246000fd5b600091825260209091206009909102016008015460ff1692915050565b6120906129e4565b600261209c84846128eb565b815481106120ba57634e487b7160e01b600052603260045260246000fd5b60009182526020918290206040805160e08101825260079093029091018054835260018101546001600160a01b031693830193909352600283015490820152600382015460608201526004808301546080830152600583015491929160a084019160ff9091169081111561213e57634e487b7160e01b600052602160045260246000fd5b600481111561215d57634e487b7160e01b600052602160045260246000fd5b8152602001600682015481525050905092915050565b61217b61276e565b6001600160a01b031661218c6104d6565b6001600160a01b0316146121b25760405162461bcd60e51b815260040161051a9061318b565b6001600160a01b0381166121d85760405162461bcd60e51b815260040161051a906130b0565b6121e18161293f565b50565b6000826001818154811061220857634e487b7160e01b600052603260045260246000fd5b600091825260209091206008600990920201015460ff1661223b5760405162461bcd60e51b815260040161051a9061328c565b600061224785856128eb565b9050600280828154811061226b57634e487b7160e01b600052603260045260246000fd5b600091825260209091206005600790920201015460ff1660048111156122a157634e487b7160e01b600052602160045260246000fd5b14801561231d575042600186815481106122cb57634e487b7160e01b600052603260045260246000fd5b906000526020600020906009020160060154600283815481106122fe57634e487b7160e01b600052603260045260246000fd5b90600052602060002090600702016004015461231a9190613304565b11155b806123f8575060016002828154811061234657634e487b7160e01b600052603260045260246000fd5b600091825260209091206005600790920201015460ff16600481111561237c57634e487b7160e01b600052602160045260246000fd5b1480156123f8575042600186815481106123a657634e487b7160e01b600052603260045260246000fd5b906000526020600020906009020160050154600283815481106123d957634e487b7160e01b600052603260045260246000fd5b9060005260206000209060070201600401546123f59190613304565b11155b80612459575060036002828154811061242157634e487b7160e01b600052603260045260246000fd5b600091825260209091206005600790920201015460ff16600481111561245757634e487b7160e01b600052602160045260246000fd5b145b6124755760405162461bcd60e51b815260040161051a90612f86565b60006125286001878154811061249b57634e487b7160e01b600052603260045260246000fd5b906000526020600020906009020160010160009054906101000a90046001600160a01b0316600284815481106124e157634e487b7160e01b600052603260045260246000fd5b906000526020600020906007020160010160009054906101000a90046001600160a01b03163060018a81548110610bf357634e487b7160e01b600052603260045260246000fd5b905080156125ce57426002838154811061255257634e487b7160e01b600052603260045260246000fd5b906000526020600020906007020160040181905550600280838154811061258957634e487b7160e01b600052603260045260246000fd5b60009182526020909120600560079092020101805460ff191660018360048111156125c457634e487b7160e01b600052602160045260246000fd5b0217905550612632565b6003600283815481106125f157634e487b7160e01b600052603260045260246000fd5b60009182526020909120600560079092020101805460ff1916600183600481111561262c57634e487b7160e01b600052602160045260246000fd5b02179055505b846002838154811061265457634e487b7160e01b600052603260045260246000fd5b600091825260208220600160079092020101546040516001600160a01b039091169189917f7f5bfe3018715b26a7067888a5c42912fbb3485170b8154ea9a448661f2f0de29190a450600195945050505050565b600081518351146126cb5760405162461bcd60e51b815260040161051a9061307b565b6014835111156126ed5760405162461bcd60e51b815260040161051a90613255565b60005b83518110156127645761275184828151811061271c57634e487b7160e01b600052603260045260246000fd5b602002602001015184838151811061274457634e487b7160e01b600052603260045260246000fd5b60200260200101516121e4565b508061275c81613372565b9150506126f0565b5060019392505050565b3390565b6000806000606460065485612787919061333c565b612791919061331c565b905061279d818561335b565b92509050915091565b600080866001600160a01b03166323b872dd8787876040518463ffffffff1660e01b81526004016127d993929190612e39565b602060405180830381600087803b1580156127f357600080fd5b505af1158015612807573d6000803e3d6000fd5b505050506040513d601f19601f8201168201806040525081019061282b9190612c50565b905080156128b05760008061283f86612772565b6001600160a01b038088166000908152600460209081526040808320938f1683529290529081208054939550919350849261287b908490613304565b90915550506001600160a01b038916600090815260076020526040812080548392906128a8908490613304565b909155505050505b9695505050505050565b600080826001600160a01b0316803b806020016040519081016040528181526000908060200190933c511192915050565b60008281526003602090815260408083208484529091528120546129215760405162461bcd60e51b815260040161051a906131c0565b50600091825260036020908152604080842092845291905290205490565b600080546001600160a01b038381166001600160a01b0319831681178455604051919092169283917f8be0079c531659141344cd1fd0a4f28419497f9722a3daafe3b4186f6b6457e09190a35050565b6040805161014081018252600080825260208201819052918101829052606081018290529060808201908152602001600081526020016000815260200160008152602001600081526020016000151581525090565b6040518060e001604052806000815260200160006001600160a01b0316815260200160008152602001600081526020016000815260200160006004811115612a3c57634e487b7160e01b600052602160045260246000fd5b8152602001600081525090565b80356001600160a01b0381168114610fe657600080fd5b600082601f830112612a70578081fd5b8135602067ffffffffffffffff80831115612a8d57612a8d6133b9565b81830260405183828201018181108482111715612aac57612aac6133b9565b60405284815283810192508684018288018501891015612aca578687fd5b8692505b85831015612aec578035845292840192600192909201918401612ace565b50979650505050505050565b600060208284031215612b09578081fd5b612b1282612a49565b9392505050565b60008060408385031215612b2b578081fd5b612b3483612a49565b91506020830135612b44816133cf565b809150509250929050565b60008060008060008060c08789031215612b67578182fd5b612b7087612a49565b95506020870135612b80816133cf565b945060408701359350606087013560028110612b9a578283fd5b9598949750929560808101359460a0909101359350915050565b600060208284031215612bc5578081fd5b813567ffffffffffffffff811115612bdb578182fd5b612be784828501612a60565b949350505050565b60008060408385031215612c01578182fd5b823567ffffffffffffffff80821115612c18578384fd5b612c2486838701612a60565b93506020850135915080821115612c39578283fd5b50612c4685828601612a60565b9150509250929050565b600060208284031215612c61578081fd5b8151612b12816133cf565b60008060408385031215612c7e578182fd5b8235612c89816133cf565b9150612c9760208401612a49565b90509250929050565b600060208284031215612cb1578081fd5b5035919050565b600060208284031215612cc9578081fd5b5051919050565b60008060408385031215612ce2578182fd5b50508035926020909101359150565b6001600160a01b03169052565b15159052565b60058110612d1457612d146133a3565b9052565b60028110612d1457612d146133a3565b8051825260018060a01b03602082015116602083015260408101516040830152606081015160608301526080810151608083015260a0810151612d6e60a0840182612d04565b5060c090810151910152565b612d85828251612cf1565b6020810151612d976020840182612cf1565b506040810151612daa6040840182612cfe565b50606081015160608301526080810151612dc76080840182612d18565b5060a081015160a083015260c081015160c083015260e081015160e083015261010080820151818401525061012080820151612e0582850182612cfe565b50505050565b6001600160a01b0391909116815260200190565b6001600160a01b0392831681529116602082015260400190565b6001600160a01b039384168152919092166020820152604081019190915260600190565b6001600160a01b03969096168652931515602086015260408501929092526060840152608083015260a082015260c00190565b6001600160a01b03929092168252602082015260400190565b6020808252825182820181905260009190848201906040850190845b81811015612eeb57612ed8838551612d28565b9284019260e09290920191600101612ec5565b50909695505050505050565b6020808252825182820181905260009190848201906040850190845b81811015612eeb57612f26838551612d7a565b928401926101409290920191600101612f13565b901515815260200190565b9115158252602082015260400190565b60208101610d958284612d04565b6020808252600990820152684e6f20746f6b656e7360b81b604082015260600190565b6020808252818101527f5061796d656e742074696d6520686173206e6f74207965742061727269766564604082015260600190565b60208082526012908201527114185e595c881a59081a5b98dbdc9c9958dd60721b604082015260600190565b6020808252601f908201527f54686973207061796d656e7420616c6c20726561647920617070726f76656400604082015260600190565b6020808252603b908201527f5061796d656e7420697320706f737369626c65206f6e6c7920696e206e61746960408201527f766520746f6b656e732c206f72206f6e6c7920696e2045524332300000000000606082015260800190565b6020808252818101527f417272617973206d7573742068617665207468652073616d65206c656e677468604082015260600190565b60208082526026908201527f4f776e61626c653a206e6577206f776e657220697320746865207a65726f206160408201526564647265737360d01b606082015260800190565b6020808252601a908201527f4e6f7420656e6f75676820617070726f76656420746f6b656e73000000000000604082015260600190565b602080825260149082015273125b98dbdc9c9958dd081c185e5b595b9d081a5960621b604082015260600190565b6020808252601690820152752cb7ba9030b932903737ba103a3434b9903830bcb2b960511b604082015260600190565b6020808252818101527f4f776e61626c653a2063616c6c6572206973206e6f7420746865206f776e6572604082015260600190565b6020808252600f908201526e14185e595c881b9bdd08199bdd5b99608a1b604082015260600190565b6020808252601b908201527f54686973207061796d656e7420616c7265616479206163746976650000000000604082015260600190565b6020808252818101527f54686973207061796d656e7420616c7265616479206465616374697661746564604082015260600190565b6020808252601b908201527f4c656e677468206d757374206265206c657373207468616e2032300000000000604082015260600190565b6020808252601b908201527f54686973207061796d656e74206e6f7420616374697665206e6f770000000000604082015260600190565b60e08101610d958284612d28565b6101408101610d958284612d7a565b90815260200190565b8381526020810183905260608101612be76040830184612d04565b600082198211156133175761331761338d565b500190565b60008261333757634e487b7160e01b81526012600452602481fd5b500490565b60008160001904831182151516156133565761335661338d565b500290565b60008282101561336d5761336d61338d565b500390565b60006000198214156133865761338661338d565b5060010190565b634e487b7160e01b600052601160045260246000fd5b634e487b7160e01b600052602160045260246000fd5b634e487b7160e01b600052604160045260246000fd5b80151581146121e157600080fdfea264697066735822122036d6773949ce4da8a1d8bae4b4e2349d6c4c583f7e66f3bfbbeaf785c422899b64736f6c63430008000033",
  "immutableReferences": {},
  "source": "// SPDX-License-Identifier: MIT\r\npragma solidity ^0.8.0;\r\npragma abicoder v2;\r\n\r\n/**\r\n * @dev Interface of the ERC20 standard as defined in the EIP.\r\n */\r\ninterface IERC20 {\r\n    /**\r\n     * @dev Returns the amount of tokens in existence.\r\n     */\r\n    function totalSupply() external view returns (uint256);\r\n\r\n    /**\r\n     * @dev Returns the amount of tokens owned by `account`.\r\n     */\r\n    function balanceOf(address account) external view returns (uint256);\r\n\r\n    /**\r\n     * @dev Moves `amount` tokens from the caller's account to `recipient`.\r\n     *\r\n     * Returns a boolean value indicating whether the operation succeeded.\r\n     *\r\n     * Emits a {Transfer} event.\r\n     */\r\n    function transfer(address recipient, uint256 amount) external returns (bool);\r\n\r\n    /**\r\n     * @dev Returns the remaining number of tokens that `spender` will be\r\n     * allowed to spend on behalf of `owner` through {transferFrom}. This is\r\n     * zero by default.\r\n     *\r\n     * This value changes when {approve} or {transferFrom} are called.\r\n     */\r\n    function allowance(address owner, address spender) external view returns (uint256);\r\n\r\n    /**\r\n     * @dev Sets `amount` as the allowance of `spender` over the caller's tokens.\r\n     *\r\n     * Returns a boolean value indicating whether the operation succeeded.\r\n     *\r\n     * IMPORTANT: Beware that changing an allowance with this method brings the risk\r\n     * that someone may use both the old and the new allowance by unfortunate\r\n     * transaction ordering. One possible solution to mitigate this race\r\n     * condition is to first reduce the spender's allowance to 0 and set the\r\n     * desired value afterwards:\r\n     * https://github.com/ethereum/EIPs/issues/20#issuecomment-263524729\r\n     *\r\n     * Emits an {Approval} event.\r\n     */\r\n    function approve(address spender, uint256 amount) external returns (bool);\r\n\r\n    /**\r\n     * @dev Moves `amount` tokens from `sender` to `recipient` using the\r\n     * allowance mechanism. `amount` is then deducted from the caller's\r\n     * allowance.\r\n     *\r\n     * Returns a boolean value indicating whether the operation succeeded.\r\n     *\r\n     * Emits a {Transfer} event.\r\n     */\r\n    function transferFrom(\r\n        address sender,\r\n        address recipient,\r\n        uint256 amount\r\n    ) external returns (bool);\r\n\r\n    /**\r\n     * @dev Emitted when `value` tokens are moved from one account (`from`) to\r\n     * another (`to`).\r\n     *\r\n     * Note that `value` may be zero.\r\n     */\r\n    event Transfer(address indexed from, address indexed to, uint256 value);\r\n\r\n    /**\r\n     * @dev Emitted when the allowance of a `spender` for an `owner` is set by\r\n     * a call to {approve}. `value` is the new allowance.\r\n     */\r\n    event Approval(address indexed owner, address indexed spender, uint256 value);\r\n}\r\n\r\n\r\n/**\r\n * @dev Collection of functions related to the address type\r\n */\r\nlibrary Address {\r\n    /**\r\n     * @dev Returns true if `account` is a contract.\r\n     *\r\n     * [IMPORTANT]\r\n     * ====\r\n     * It is unsafe to assume that an address for which this function returns\r\n     * false is an externally-owned account (EOA) and not a contract.\r\n     *\r\n     * Among others, `isContract` will return false for the following\r\n     * types of addresses:\r\n     *\r\n     *  - an externally-owned account\r\n     *  - a contract in construction\r\n     *  - an address where a contract will be created\r\n     *  - an address where a contract lived, but was destroyed\r\n     * ====\r\n     *\r\n     * [IMPORTANT]\r\n     * ====\r\n     * You shouldn't rely on `isContract` to protect against flash loan attacks!\r\n     *\r\n     * Preventing calls from contracts is highly discouraged. It breaks composability, breaks support for smart wallets\r\n     * like Gnosis Safe, and does not provide security since it can be circumvented by calling from a contract\r\n     * constructor.\r\n     * ====\r\n     */\r\n    function isContract(address account) internal view returns (bool) {\r\n        // This method relies on extcodesize/address.code.length, which returns 0\r\n        // for contracts in construction, since the code is only stored at the end\r\n        // of the constructor execution.\r\n\r\n        return account.code.length > 0;\r\n    }\r\n\r\n    /**\r\n     * @dev Replacement for Solidity's `transfer`: sends `amount` wei to\r\n     * `recipient`, forwarding all available gas and reverting on errors.\r\n     *\r\n     * https://eips.ethereum.org/EIPS/eip-1884[EIP1884] increases the gas cost\r\n     * of certain opcodes, possibly making contracts go over the 2300 gas limit\r\n     * imposed by `transfer`, making them unable to receive funds via\r\n     * `transfer`. {sendValue} removes this limitation.\r\n     *\r\n     * https://diligence.consensys.net/posts/2019/09/stop-using-soliditys-transfer-now/[Learn more].\r\n     *\r\n     * IMPORTANT: because control is transferred to `recipient`, care must be\r\n     * taken to not create reentrancy vulnerabilities. Consider using\r\n     * {ReentrancyGuard} or the\r\n     * https://solidity.readthedocs.io/en/v0.5.11/security-considerations.html#use-the-checks-effects-interactions-pattern[checks-effects-interactions pattern].\r\n     */\r\n    function sendValue(address payable recipient, uint256 amount) internal {\r\n        require(address(this).balance >= amount, \"Address: insufficient balance\");\r\n\r\n        (bool success, ) = recipient.call{value: amount}(\"\");\r\n        require(success, \"Address: unable to send value, recipient may have reverted\");\r\n    }\r\n\r\n    /**\r\n     * @dev Performs a Solidity function call using a low level `call`. A\r\n     * plain `call` is an unsafe replacement for a function call: use this\r\n     * function instead.\r\n     *\r\n     * If `target` reverts with a revert reason, it is bubbled up by this\r\n     * function (like regular Solidity function calls).\r\n     *\r\n     * Returns the raw returned data. To convert to the expected return value,\r\n     * use https://solidity.readthedocs.io/en/latest/units-and-global-variables.html?highlight=abi.decode#abi-encoding-and-decoding-functions[`abi.decode`].\r\n     *\r\n     * Requirements:\r\n     *\r\n     * - `target` must be a contract.\r\n     * - calling `target` with `data` must not revert.\r\n     *\r\n     * _Available since v3.1._\r\n     */\r\n    function functionCall(address target, bytes memory data) internal returns (bytes memory) {\r\n        return functionCall(target, data, \"Address: low-level call failed\");\r\n    }\r\n\r\n    /**\r\n     * @dev Same as {xref-Address-functionCall-address-bytes-}[`functionCall`], but with\r\n     * `errorMessage` as a fallback revert reason when `target` reverts.\r\n     *\r\n     * _Available since v3.1._\r\n     */\r\n    function functionCall(\r\n        address target,\r\n        bytes memory data,\r\n        string memory errorMessage\r\n    ) internal returns (bytes memory) {\r\n        return functionCallWithValue(target, data, 0, errorMessage);\r\n    }\r\n\r\n    /**\r\n     * @dev Same as {xref-Address-functionCall-address-bytes-}[`functionCall`],\r\n     * but also transferring `value` wei to `target`.\r\n     *\r\n     * Requirements:\r\n     *\r\n     * - the calling contract must have an ETH balance of at least `value`.\r\n     * - the called Solidity function must be `payable`.\r\n     *\r\n     * _Available since v3.1._\r\n     */\r\n    function functionCallWithValue(\r\n        address target,\r\n        bytes memory data,\r\n        uint256 value\r\n    ) internal returns (bytes memory) {\r\n        return functionCallWithValue(target, data, value, \"Address: low-level call with value failed\");\r\n    }\r\n\r\n    /**\r\n     * @dev Same as {xref-Address-functionCallWithValue-address-bytes-uint256-}[`functionCallWithValue`], but\r\n     * with `errorMessage` as a fallback revert reason when `target` reverts.\r\n     *\r\n     * _Available since v3.1._\r\n     */\r\n    function functionCallWithValue(\r\n        address target,\r\n        bytes memory data,\r\n        uint256 value,\r\n        string memory errorMessage\r\n    ) internal returns (bytes memory) {\r\n        require(address(this).balance >= value, \"Address: insufficient balance for call\");\r\n        require(isContract(target), \"Address: call to non-contract\");\r\n\r\n        (bool success, bytes memory returndata) = target.call{value: value}(data);\r\n        return verifyCallResult(success, returndata, errorMessage);\r\n    }\r\n\r\n    /**\r\n     * @dev Same as {xref-Address-functionCall-address-bytes-}[`functionCall`],\r\n     * but performing a static call.\r\n     *\r\n     * _Available since v3.3._\r\n     */\r\n    function functionStaticCall(address target, bytes memory data) internal view returns (bytes memory) {\r\n        return functionStaticCall(target, data, \"Address: low-level static call failed\");\r\n    }\r\n\r\n    /**\r\n     * @dev Same as {xref-Address-functionCall-address-bytes-string-}[`functionCall`],\r\n     * but performing a static call.\r\n     *\r\n     * _Available since v3.3._\r\n     */\r\n    function functionStaticCall(\r\n        address target,\r\n        bytes memory data,\r\n        string memory errorMessage\r\n    ) internal view returns (bytes memory) {\r\n        require(isContract(target), \"Address: static call to non-contract\");\r\n\r\n        (bool success, bytes memory returndata) = target.staticcall(data);\r\n        return verifyCallResult(success, returndata, errorMessage);\r\n    }\r\n\r\n    /**\r\n     * @dev Same as {xref-Address-functionCall-address-bytes-}[`functionCall`],\r\n     * but performing a delegate call.\r\n     *\r\n     * _Available since v3.4._\r\n     */\r\n    function functionDelegateCall(address target, bytes memory data) internal returns (bytes memory) {\r\n        return functionDelegateCall(target, data, \"Address: low-level delegate call failed\");\r\n    }\r\n\r\n    /**\r\n     * @dev Same as {xref-Address-functionCall-address-bytes-string-}[`functionCall`],\r\n     * but performing a delegate call.\r\n     *\r\n     * _Available since v3.4._\r\n     */\r\n    function functionDelegateCall(\r\n        address target,\r\n        bytes memory data,\r\n        string memory errorMessage\r\n    ) internal returns (bytes memory) {\r\n        require(isContract(target), \"Address: delegate call to non-contract\");\r\n\r\n        (bool success, bytes memory returndata) = target.delegatecall(data);\r\n        return verifyCallResult(success, returndata, errorMessage);\r\n    }\r\n\r\n    /**\r\n     * @dev Tool to verifies that a low level call was successful, and revert if it wasn't, either by bubbling the\r\n     * revert reason using the provided one.\r\n     *\r\n     * _Available since v4.3._\r\n     */\r\n    function verifyCallResult(\r\n        bool success,\r\n        bytes memory returndata,\r\n        string memory errorMessage\r\n    ) internal pure returns (bytes memory) {\r\n        if (success) {\r\n            return returndata;\r\n        } else {\r\n            // Look for revert reason and bubble it up if present\r\n            if (returndata.length > 0) {\r\n                // The easiest way to bubble the revert reason is using memory via assembly\r\n\r\n                assembly {\r\n                    let returndata_size := mload(returndata)\r\n                    revert(add(32, returndata), returndata_size)\r\n                }\r\n            } else {\r\n                revert(errorMessage);\r\n            }\r\n        }\r\n    }\r\n}\r\n\r\n/**\r\n * @dev Provides information about the current execution context, including the\r\n * sender of the transaction and its data. While these are generally available\r\n * via msg.sender and msg.data, they should not be accessed in such a direct\r\n * manner, since when dealing with meta-transactions the account sending and\r\n * paying for execution may not be the actual sender (as far as an application\r\n * is concerned).\r\n *\r\n * This contract is only required for intermediate, library-like contracts.\r\n */\r\nabstract contract Context {\r\n    function _msgSender() internal view virtual returns (address) {\r\n        return msg.sender;\r\n    }\r\n\r\n    function _msgData() internal view virtual returns (bytes calldata) {\r\n        return msg.data;\r\n    }\r\n}\r\n\r\n/**\r\n * @dev Contract module which provides a basic access control mechanism, where\r\n * there is an account (an owner) that can be granted exclusive access to\r\n * specific functions.\r\n *\r\n * By default, the owner account will be the one that deploys the contract. This\r\n * can later be changed with {transferOwnership}.\r\n *\r\n * This module is used through inheritance. It will make available the modifier\r\n * `onlyOwner`, which can be applied to your functions to restrict their use to\r\n * the owner.\r\n */\r\nabstract contract Ownable is Context {\r\n    address private _owner;\r\n\r\n    event OwnershipTransferred(address indexed previousOwner, address indexed newOwner);\r\n\r\n    /**\r\n     * @dev Initializes the contract setting the deployer as the initial owner.\r\n     */\r\n    constructor() {\r\n        _transferOwnership(_msgSender());\r\n    }\r\n\r\n    /**\r\n     * @dev Returns the address of the current owner.\r\n     */\r\n    function owner() public view virtual returns (address) {\r\n        return _owner;\r\n    }\r\n\r\n    /**\r\n     * @dev Throws if called by any account other than the owner.\r\n     */\r\n    modifier onlyOwner() {\r\n        require(owner() == _msgSender(), \"Ownable: caller is not the owner\");\r\n        _;\r\n    }\r\n\r\n    /**\r\n     * @dev Transfers ownership of the contract to a new account (`newOwner`).\r\n     * Can only be called by the current owner.\r\n     */\r\n    function transferOwnership(address newOwner) public virtual onlyOwner {\r\n        require(newOwner != address(0), \"Ownable: new owner is the zero address\");\r\n        _transferOwnership(newOwner);\r\n    }\r\n\r\n    /**\r\n     * @dev Transfers ownership of the contract to a new account (`newOwner`).\r\n     * Internal function without access restriction.\r\n     */\r\n    function _transferOwnership(address newOwner) internal virtual {\r\n        address oldOwner = _owner;\r\n        _owner = newOwner;\r\n        emit OwnershipTransferred(oldOwner, newOwner);\r\n    }\r\n}\r\n\r\n// TODO: refactor\r\n// TODO: add require(if they need)\r\n// TODO: add comments\r\n// TODO: add emits\r\n\r\ncontract CryptoStribe is Context, Ownable {\r\n    using Address for address;\r\n\r\n    modifier paymentIdCheck(uint256 payment_id) {\r\n        require(\r\n            0 < payment_id && payment_id < GetPaymentsLength(),\r\n            \"Incorrect payment id\"\r\n        );\r\n        _;\r\n    }\r\n\r\n    modifier paymentActiveCheck(uint256 payment_id) {\r\n        require(\r\n            _payments[payment_id].is_active,\r\n            \"This payment not active now\"\r\n        );\r\n        _;\r\n    }\r\n\r\n    event PaymentCreated(\r\n        address indexed service_provider_address,\r\n        address ERC20_address,\r\n        bool is_native_token,\r\n        uint256 price,\r\n        PaymentType indexed payment_type,\r\n        uint256 creation_timestamp,\r\n        uint256 trial_time,\r\n        uint256 payment_period,\r\n        uint256 indexed payment_id\r\n    );\r\n\r\n    event PaymentDeactivated(\r\n        uint256 indexed payment_id\r\n    );\r\n\r\n    event PaymentActivated(\r\n        uint256 indexed payment_id\r\n    );\r\n\r\n    event PaymentApproved(\r\n        uint256 indexed payment_id,\r\n        address indexed billing_address,\r\n        uint256 indexed billing_id,\r\n        uint256 creation_timestamp,\r\n        uint256 last_payment_timestamp,\r\n        PaymentStatus payment_status\r\n    );\r\n\r\n    event PaymentExecuted(\r\n        uint256 indexed payment_id,\r\n        address indexed billing_address,\r\n        uint256 indexed billing_id\r\n    );\r\n\r\n    event SubscriptionCanceled(\r\n        uint256 indexed payment_id,\r\n        address indexed billing_address,\r\n        uint256 indexed billing_id\r\n    );\r\n\r\n    event WithdrawSuccessful(\r\n        address indexed recipient,\r\n        bool is_native_token,\r\n        uint256 timestamp\r\n    );\r\n\r\n    enum PaymentType {\r\n        SUBSCRIPTION,\r\n        ONE_TIME_PAYMENT\r\n    }\r\n\r\n    struct Payment {\r\n        address service_provider_address;\r\n        address ERC20_address;\r\n        bool is_native_token;\r\n        uint256 price;\r\n        PaymentType payment_type; \r\n        uint256 creation_timestamp;\r\n        uint256 trial_time;\r\n        uint256 payment_period;\r\n        uint256 payment_id;\r\n        bool is_active;\r\n    }\r\n\r\n    enum PaymentStatus {\r\n        CREATED,\r\n        TRIAL,  \r\n        ACTIVE,\r\n        DECLINE,\r\n        CANCELED\r\n    }\r\n\r\n    struct Payer {\r\n        uint256 payment_id;\r\n        address billing_address;\r\n        uint256 billing_id;\r\n        uint256 creation_timestamp;\r\n        uint256 last_payment_timestamp;\r\n        PaymentStatus payment_status;\r\n        uint256 payer_id;\r\n    }\r\n\r\n    Payment[] private _payments;\r\n\r\n    Payer[] private _payers;\r\n    mapping(uint256 => mapping(uint256 => uint256)) private _payment_id_billing_id_to_payer_id;\r\n    mapping(address => mapping(address => uint256)) private _service_provider_ERC20_earnings;\r\n    mapping(address => uint256) private _service_provider_native_earnings;\r\n    \r\n    uint256 public comission_precent = 10;\r\n    mapping(address => uint256) private _commission_ERC20_earnings;\r\n    uint256 private _commission_native_earnings;\r\n\r\n    constructor() {\r\n        _payers.push({});\r\n        _payments.push({});\r\n    }\r\n\r\n    receive() payable external {\r\n        _service_provider_native_earnings[owner()] += msg.value;\r\n    }\r\n\r\n    function _AmountWithCommission(\r\n        uint256 amount\r\n    ) private view returns (uint256, uint256) {\r\n        uint256 commission = amount * comission_precent / 100;\r\n        return (amount - commission, commission);\r\n    }\r\n\r\n    function _GetPayerId(\r\n        uint256 payment_id,\r\n        uint256 billing_id\r\n    ) private view returns (uint256) {\r\n        require(\r\n            _payment_id_billing_id_to_payer_id[payment_id][billing_id] != 0,\r\n            \"Payer not found\"\r\n        );\r\n        return _payment_id_billing_id_to_payer_id[payment_id][billing_id];\r\n    }\r\n\r\n    function GetPaymentsLength() public view returns (uint256) {\r\n        return _payments.length;\r\n    }\r\n\r\n    function GetPayersLength() public view returns (uint256) {\r\n        return _payers.length;\r\n    }\r\n\r\n    function IsPaymentActive(uint256 payment_id) public view returns (bool) {\r\n        return _payments[payment_id].is_active;\r\n    }\r\n\r\n    function GetPayment(uint256 payment_id) public view paymentIdCheck(payment_id) returns (Payment memory) {\r\n        return _payments[payment_id];\r\n    }\r\n\r\n    function GetPayments(\r\n        uint256[] memory payment_ids\r\n    ) public view returns (Payment[] memory) {\r\n        Payment[] memory payments = new Payment[](payment_ids.length);\r\n\r\n        for (uint256 i = 0; i < payment_ids.length; i++) {\r\n            payments[i] = GetPayment(payment_ids[i]);\r\n        }\r\n\r\n        return payments;\r\n    }\r\n\r\n    function GetPayer(\r\n        uint256 payment_id,\r\n        uint256 billing_id\r\n    ) public view returns(Payer memory) {   \r\n        return _payers[_GetPayerId(payment_id, billing_id)];\r\n    }\r\n\r\n    function GetPayers(\r\n        uint256[] memory payment_ids,\r\n        uint256[] memory billing_ids\r\n    ) public view returns(Payer[] memory) {\r\n        require(\r\n            payment_ids.length == billing_ids.length,\r\n            \"Arrays must have the same length\"\r\n        );\r\n        Payer[] memory payers = new Payer[](payment_ids.length);\r\n\r\n        for (uint256 i = 0; i < payment_ids.length; i++) {\r\n            payers[i] =  _payers[_GetPayerId(payment_ids[i], billing_ids[i])];\r\n        }\r\n\r\n        return payers;\r\n    }\r\n\r\n    function GetPayerByPayerId(\r\n        uint256 payer_id\r\n    ) public view returns(Payer memory) {\r\n        require(\r\n            0 <= payer_id && payer_id < GetPayersLength(),\r\n            \"Payer id incorrect\"\r\n        );\r\n        return _payers[payer_id];\r\n    }\r\n\r\n    function GetPayersByPayersIds(\r\n        uint256[] memory payer_ids\r\n    ) public view returns(Payer[] memory) {\r\n        Payer[] memory payers = new Payer[](payer_ids.length);\r\n\r\n        for (uint256 i = 0; i < payer_ids.length; i++) {\r\n            payers[i] = GetPayerByPayerId(payer_ids[i]);\r\n        }\r\n\r\n        return payers;\r\n    }\r\n\r\n    function GetPayerStatus(\r\n        uint256 payment_id,\r\n        uint256 billing_id\r\n    ) public view returns(PaymentStatus) {\r\n        return _payers[_GetPayerId(payment_id, billing_id)].payment_status;\r\n    }\r\n\r\n    function GetServiceProviderEarnings(\r\n        uint256 payment_id\r\n    ) public view paymentIdCheck(payment_id) returns (uint256) {        \r\n        address service_provider_address = _payments[payment_id].service_provider_address;\r\n\r\n        if (_payments[payment_id].is_native_token) {\r\n            return _service_provider_native_earnings[service_provider_address];\r\n        }\r\n        \r\n        return _service_provider_ERC20_earnings[service_provider_address][_payments[payment_id].ERC20_address];\r\n    }\r\n\r\n    function GetCommissions(\r\n        bool is_native_token,\r\n        address ERC20_address\r\n    ) public view returns (uint256) {\r\n        require(\r\n            is_native_token && ERC20_address == address(0) ||\r\n            !is_native_token && ERC20_address != address(0) && ERC20_address.isContract(),\r\n            \"Payment is possible only in native tokens, or only in ERC20\"\r\n        );\r\n        \r\n        if (is_native_token) {\r\n            return _commission_native_earnings;\r\n        }\r\n        \r\n        return _commission_ERC20_earnings[ERC20_address];\r\n    }\r\n\r\n    function CreatePayment(\r\n        address ERC20_address,\r\n        bool is_native_token,\r\n        uint256 price,\r\n        PaymentType payment_type,\r\n        uint256 trial_time,\r\n        uint256 payment_period\r\n    ) public returns (uint256 payment_id) {\r\n        require(\r\n            is_native_token && ERC20_address == address(0) ||\r\n            !is_native_token && ERC20_address != address(0) && ERC20_address.isContract(),\r\n            \"Payment is possible only in native tokens, or only in ERC20\"\r\n        );\r\n\r\n        address service_provider_address = _msgSender();\r\n        payment_id = _payments.length;\r\n        _payments.push(\r\n            Payment(\r\n                service_provider_address,\r\n                ERC20_address,\r\n                is_native_token,\r\n                price,\r\n                payment_type,\r\n                block.timestamp,\r\n                trial_time,\r\n                payment_period,\r\n                payment_id,\r\n                true\r\n            )\r\n        );\r\n\r\n        emit PaymentCreated(\r\n            service_provider_address,\r\n            ERC20_address,\r\n            is_native_token,\r\n            price,\r\n            payment_type,\r\n            block.timestamp,\r\n            trial_time,\r\n            payment_period,\r\n            payment_id\r\n        );\r\n\r\n        return payment_id;\r\n    }\r\n\r\n    function DeactivatePayment(uint256 payment_id) public onlyOwner paymentIdCheck(payment_id) returns (bool) {\r\n        require(\r\n            IsPaymentActive(payment_id) == true,\r\n            \"This payment already deactivated\"\r\n        );\r\n\r\n        _payments[payment_id].is_active = false;\r\n\r\n        emit PaymentDeactivated(payment_id);\r\n\r\n        return true;\r\n    }\r\n\r\n    function ActivatePayment(uint256 payment_id) public onlyOwner paymentIdCheck(payment_id) returns (bool) {\r\n        require(\r\n            IsPaymentActive(payment_id) == false,\r\n            \"This payment already active\"\r\n        );\r\n        _payments[payment_id].is_active = true;\r\n\r\n        emit PaymentActivated(payment_id);\r\n\r\n        return true;\r\n    }\r\n\r\n    function SendERC20Tokens(\r\n        address ERC20_address,\r\n        address sender,\r\n        address recipient,\r\n        uint256 amount,\r\n        address service_provider_address\r\n    ) private returns (bool) {\r\n        bool complite = IERC20(ERC20_address).transferFrom(\r\n                sender,\r\n                recipient,\r\n                amount\r\n        );\r\n\r\n        if (complite) {\r\n            uint256 pay;\r\n            uint256 commission;\r\n            (pay, commission) = _AmountWithCommission(amount);\r\n            _service_provider_ERC20_earnings[service_provider_address][ERC20_address] += pay;\r\n            _commission_ERC20_earnings[ERC20_address] += commission;\r\n        }\r\n\r\n        return complite;\r\n    }\r\n\r\n    function ApprovePayment(\r\n        uint256 payment_id,\r\n        uint256 billing_id\r\n    ) public payable paymentIdCheck(payment_id) paymentActiveCheck(payment_id) returns (bool) {\r\n        require(\r\n            _payment_id_billing_id_to_payer_id[payment_id][billing_id] == 0,\r\n            \"This payment all ready approved\"\r\n        );\r\n        require(\r\n            _payments[payment_id].is_native_token && msg.value ==_payments[payment_id].price ||\r\n            !_payments[payment_id].is_native_token &&\r\n            IERC20(_payments[payment_id].ERC20_address).allowance(_msgSender(), address(this)) >=\r\n            _payments[payment_id].price,\r\n            \"Not enough approved tokens\"\r\n        );\r\n\r\n        uint256 payer_id = _payers.length;\r\n\r\n        _payers.push(\r\n            Payer(\r\n                payment_id,\r\n                _msgSender(),\r\n                billing_id,\r\n                block.timestamp,\r\n                block.timestamp,\r\n                _payments[payment_id].trial_time > 0 ? PaymentStatus.TRIAL : PaymentStatus.ACTIVE,\r\n                payer_id\r\n            )\r\n        );\r\n\r\n        _payment_id_billing_id_to_payer_id[payment_id][billing_id] = payer_id;\r\n\r\n        emit PaymentApproved(\r\n            payment_id,\r\n            _msgSender(),\r\n            billing_id,\r\n            block.timestamp,\r\n            block.timestamp,\r\n            _payments[payment_id].trial_time > 0 ? PaymentStatus.TRIAL : PaymentStatus.ACTIVE\r\n        );\r\n\r\n        if (\r\n            _payments[payment_id].payment_type == PaymentType.ONE_TIME_PAYMENT &&\r\n            _payments[payment_id].is_native_token\r\n        ) {\r\n            uint256 pay;\r\n            uint256 commission;\r\n            (pay, commission) = _AmountWithCommission(_payments[payment_id].price);\r\n            _service_provider_native_earnings[_payments[payment_id].service_provider_address] += pay;\r\n            _commission_native_earnings += commission;\r\n\r\n            return true;\r\n        }\r\n\r\n        if (\r\n            !_payments[payment_id].is_native_token &&\r\n            _payments[payment_id].trial_time == 0\r\n        ) {\r\n            return SendERC20Tokens(\r\n                _payments[payment_id].ERC20_address,\r\n                _msgSender(),\r\n                address(this),\r\n                _payments[payment_id].price,\r\n                _payments[payment_id].service_provider_address\r\n            );\r\n        }\r\n\r\n        if (\r\n             _payments[payment_id].payment_type == PaymentType.SUBSCRIPTION &&\r\n             _payments[payment_id].trial_time > 0\r\n        ) {\r\n            return true;\r\n        }\r\n\r\n        revert();\r\n    }\r\n\r\n    function ExecuteSubscription(\r\n        uint256 payment_id,\r\n        uint256 billing_id\r\n    ) public paymentActiveCheck(payment_id) returns (bool) {\r\n        uint256 payer_id = _GetPayerId(payment_id, billing_id);\r\n        require(\r\n            _payers[payer_id].payment_status == PaymentStatus.ACTIVE &&\r\n            _payers[payer_id].last_payment_timestamp + _payments[payment_id].payment_period <=\r\n            block.timestamp ||\r\n            _payers[payer_id].payment_status == PaymentStatus.TRIAL &&\r\n            _payers[payer_id].last_payment_timestamp + _payments[payment_id].trial_time <=\r\n            block.timestamp ||\r\n            _payers[payer_id].payment_status == PaymentStatus.DECLINE,\r\n            \"Payment time has not yet arrived\"\r\n        );\r\n\r\n        bool complite = SendERC20Tokens(\r\n            _payments[payment_id].ERC20_address,\r\n            _payers[payer_id].billing_address,\r\n            address(this),\r\n            _payments[payment_id].price,\r\n            _payments[payment_id].service_provider_address\r\n        );\r\n\r\n        if (complite) {\r\n            _payers[payer_id].last_payment_timestamp = block.timestamp;\r\n            _payers[payer_id].payment_status = PaymentStatus.ACTIVE;\r\n        } else {\r\n            _payers[payer_id].payment_status = PaymentStatus.DECLINE;\r\n        }\r\n\r\n        emit PaymentExecuted(\r\n            payment_id,\r\n            _payers[payer_id].billing_address,\r\n            billing_id\r\n        );\r\n\r\n        return true;\r\n    }\r\n\r\n    function ExecuteSubscriptions(\r\n        uint256[] memory payment_ids,\r\n        uint256[] memory billing_ids\r\n    ) public returns (bool) {\r\n        require(\r\n            payment_ids.length == billing_ids.length,\r\n            \"Arrays must have the same length\"\r\n        );\r\n        require(\r\n            payment_ids.length <= 20,\r\n            \"Length must be less than 20\"\r\n        );\r\n\r\n        for (uint256 i = 0; i < payment_ids.length; i++) {\r\n            ExecuteSubscription(payment_ids[i], billing_ids[i]);\r\n        }\r\n\r\n        return true;\r\n    }\r\n\r\n    function CancelSubscription(\r\n        uint256 payment_id,\r\n        uint256 billing_id\r\n    ) public returns (bool) {\r\n        uint256 payer_id = _GetPayerId(payment_id, billing_id);\r\n        require(\r\n            _payers[payer_id].billing_address == _msgSender(),\r\n            \"You are not this payer\"\r\n        );\r\n        \r\n        _payers[payer_id].payment_status = PaymentStatus.CANCELED;\r\n\r\n        emit SubscriptionCanceled(\r\n            payment_id,\r\n            _payers[payer_id].billing_address,\r\n            billing_id\r\n        );\r\n\r\n        return true;\r\n    }\r\n\r\n    function Withdraw(\r\n        bool is_native_token,\r\n        address ERC20_address\r\n    ) public returns (bool) {\r\n        require(\r\n            is_native_token &&\r\n            _service_provider_native_earnings[_msgSender()] > 0 ||\r\n            !is_native_token &&\r\n            _service_provider_ERC20_earnings[_msgSender()][ERC20_address] > 0,\r\n            \"No tokens\"\r\n        );\r\n\r\n        if (is_native_token && _service_provider_native_earnings[_msgSender()] > 0) {\r\n            uint256 balance = _service_provider_native_earnings[_msgSender()];\r\n            payable(_msgSender()).transfer(balance);\r\n            _service_provider_native_earnings[_msgSender()] = 0;\r\n        }\r\n        if (!is_native_token && _service_provider_ERC20_earnings[_msgSender()][ERC20_address] > 0) {\r\n            IERC20(ERC20_address).transfer(\r\n                _msgSender(),\r\n                _service_provider_ERC20_earnings[_msgSender()][ERC20_address]\r\n            );\r\n            _service_provider_ERC20_earnings[_msgSender()][ERC20_address] = 0;\r\n        }\r\n\r\n        emit WithdrawSuccessful(_msgSender(), is_native_token, block.timestamp);\r\n\r\n        return true;\r\n    }\r\n\r\n    function WithdrawCommission(\r\n        address ERC20_address,\r\n        bool is_native_token\r\n    ) public onlyOwner returns (bool) {\r\n        require(\r\n            is_native_token && _commission_native_earnings > 0 ||\r\n            !is_native_token && _commission_ERC20_earnings[ERC20_address] > 0,\r\n            \"No tokens\"\r\n        );\r\n\r\n        if (is_native_token) {\r\n            uint256 balance = _commission_native_earnings;\r\n            payable(_msgSender()).transfer(balance);\r\n            _commission_native_earnings = 0;\r\n        } else {\r\n            IERC20(ERC20_address).transfer(\r\n                _msgSender(),\r\n                _commission_ERC20_earnings[ERC20_address]\r\n            );\r\n            _commission_ERC20_earnings[ERC20_address] = 0;\r\n        }\r\n\r\n        emit WithdrawSuccessful(_msgSender(), is_native_token, block.timestamp);\r\n\r\n        return true;\r\n    }\r\n}\r\n",
  "sourcePath": "C:\\Users\\Oksana\\Documents\\CriptoStribe\\contracts\\CryptoStribe.sol",
  "compiler": {
    "name": "solc",
    "version": "0.8.0+commit.c7dfd78e.Emscripten.clang"
  },
  "schemaVersion": "3.4.4",
  "updatedAt": "2022-02-18T19:38:11.160Z",
  "networkType": "ethereum",
  "devdoc": {
    "kind": "dev",
    "methods": {
      "owner()": {
        "details": "Returns the address of the current owner."
      },
      "transferOwnership(address)": {
        "details": "Transfers ownership of the contract to a new account (`newOwner`). Can only be called by the current owner."
      }
    },
    "version": 1
  },
  "userdoc": {
    "kind": "user",
    "methods": {},
    "version": 1
  }
}