{
  "contractName": "ERC20",
  "abi": [
    {
      "anonymous": false,
      "inputs": [
        {
          "indexed": true,
          "internalType": "address",
          "name": "src",
          "type": "address"
        },
        {
          "indexed": true,
          "internalType": "address",
          "name": "guy",
          "type": "address"
        },
        {
          "indexed": false,
          "internalType": "uint256",
          "name": "wad",
          "type": "uint256"
        }
      ],
      "name": "Approval",
      "type": "event"
    },
    {
      "anonymous": false,
      "inputs": [
        {
          "indexed": true,
          "internalType": "address",
          "name": "dst",
          "type": "address"
        },
        {
          "indexed": false,
          "internalType": "uint256",
          "name": "wad",
          "type": "uint256"
        }
      ],
      "name": "Deposit",
      "type": "event"
    },
    {
      "anonymous": false,
      "inputs": [
        {
          "indexed": true,
          "internalType": "address",
          "name": "src",
          "type": "address"
        },
        {
          "indexed": true,
          "internalType": "address",
          "name": "dst",
          "type": "address"
        },
        {
          "indexed": false,
          "internalType": "uint256",
          "name": "wad",
          "type": "uint256"
        }
      ],
      "name": "Transfer",
      "type": "event"
    },
    {
      "anonymous": false,
      "inputs": [
        {
          "indexed": true,
          "internalType": "address",
          "name": "src",
          "type": "address"
        },
        {
          "indexed": false,
          "internalType": "uint256",
          "name": "wad",
          "type": "uint256"
        }
      ],
      "name": "Withdrawal",
      "type": "event"
    },
    {
      "inputs": [
        {
          "internalType": "address",
          "name": "",
          "type": "address"
        },
        {
          "internalType": "address",
          "name": "",
          "type": "address"
        }
      ],
      "name": "allowance",
      "outputs": [
        {
          "internalType": "uint256",
          "name": "",
          "type": "uint256"
        }
      ],
      "stateMutability": "view",
      "type": "function"
    },
    {
      "inputs": [
        {
          "internalType": "address",
          "name": "",
          "type": "address"
        }
      ],
      "name": "balanceOf",
      "outputs": [
        {
          "internalType": "uint256",
          "name": "",
          "type": "uint256"
        }
      ],
      "stateMutability": "view",
      "type": "function"
    },
    {
      "inputs": [],
      "name": "decimals",
      "outputs": [
        {
          "internalType": "uint8",
          "name": "",
          "type": "uint8"
        }
      ],
      "stateMutability": "view",
      "type": "function"
    },
    {
      "inputs": [],
      "name": "name",
      "outputs": [
        {
          "internalType": "string",
          "name": "",
          "type": "string"
        }
      ],
      "stateMutability": "view",
      "type": "function"
    },
    {
      "inputs": [],
      "name": "symbol",
      "outputs": [
        {
          "internalType": "string",
          "name": "",
          "type": "string"
        }
      ],
      "stateMutability": "view",
      "type": "function"
    },
    {
      "inputs": [
        {
          "internalType": "uint256",
          "name": "amount",
          "type": "uint256"
        }
      ],
      "name": "deposit",
      "outputs": [],
      "stateMutability": "nonpayable",
      "type": "function"
    },
    {
      "inputs": [
        {
          "internalType": "uint256",
          "name": "wad",
          "type": "uint256"
        }
      ],
      "name": "withdraw",
      "outputs": [],
      "stateMutability": "nonpayable",
      "type": "function"
    },
    {
      "inputs": [],
      "name": "totalSupply",
      "outputs": [
        {
          "internalType": "uint256",
          "name": "",
          "type": "uint256"
        }
      ],
      "stateMutability": "view",
      "type": "function"
    },
    {
      "inputs": [
        {
          "internalType": "address",
          "name": "guy",
          "type": "address"
        },
        {
          "internalType": "uint256",
          "name": "wad",
          "type": "uint256"
        }
      ],
      "name": "approve",
      "outputs": [
        {
          "internalType": "bool",
          "name": "",
          "type": "bool"
        }
      ],
      "stateMutability": "nonpayable",
      "type": "function"
    },
    {
      "inputs": [
        {
          "internalType": "address",
          "name": "dst",
          "type": "address"
        },
        {
          "internalType": "uint256",
          "name": "wad",
          "type": "uint256"
        }
      ],
      "name": "transfer",
      "outputs": [
        {
          "internalType": "bool",
          "name": "",
          "type": "bool"
        }
      ],
      "stateMutability": "nonpayable",
      "type": "function"
    },
    {
      "inputs": [
        {
          "internalType": "address",
          "name": "src",
          "type": "address"
        },
        {
          "internalType": "address",
          "name": "dst",
          "type": "address"
        },
        {
          "internalType": "uint256",
          "name": "wad",
          "type": "uint256"
        }
      ],
      "name": "transferFrom",
      "outputs": [
        {
          "internalType": "bool",
          "name": "",
          "type": "bool"
        }
      ],
      "stateMutability": "nonpayable",
      "type": "function"
    }
  ],
  "bytecode": "0x60c06040526005608081905264045524332360dc1b60a09081526100269160009190610072565b50604080518082019091526004808252630ae8aa8960e31b602090920191825261005291600191610072565b506002805460ff1916601217905534801561006c57600080fd5b50610146565b82805461007e9061010b565b90600052602060002090601f0160209004810192826100a057600085556100e6565b82601f106100b957805160ff19168380011785556100e6565b828001600101855582156100e6579182015b828111156100e65782518255916020019190600101906100cb565b506100f29291506100f6565b5090565b5b808211156100f257600081556001016100f7565b60028104600182168061011f57607f821691505b6020821081141561014057634e487b7160e01b600052602260045260246000fd5b50919050565b61074d806101556000396000f3fe608060405234801561001057600080fd5b50600436106100a95760003560e01c8063313ce56711610071578063313ce5671461012957806370a082311461013e57806395d89b4114610151578063a9059cbb14610159578063b6b55f251461016c578063dd62ed3e1461017f576100a9565b806306fdde03146100ae578063095ea7b3146100cc57806318160ddd146100ec57806323b872dd146101015780632e1a7d4d14610114575b600080fd5b6100b6610192565b6040516100c3919061062d565b60405180910390f35b6100df6100da3660046105e1565b610220565b6040516100c39190610622565b6100f461028a565b6040516100c39190610680565b6100df61010f3660046105a6565b61028e565b61012761012236600461060a565b6103dd565b005b61013161048f565b6040516100c39190610689565b6100f461014c36600461055a565b610498565b6100b66104aa565b6100df6101673660046105e1565b6104b7565b61012761017a36600461060a565b6104cb565b6100f461018d366004610574565b610521565b6000805461019f906106c6565b80601f01602080910402602001604051908101604052809291908181526020018280546101cb906106c6565b80156102185780601f106101ed57610100808354040283529160200191610218565b820191906000526020600020905b8154815290600101906020018083116101fb57829003601f168201915b505050505081565b3360008181526004602090815260408083206001600160a01b038716808552925280832085905551919290917f8c5be1e5ebec7d5bd14f71427d1e84f3dd0314c0f7b2291e5b200ac8c7c3b92590610279908690610680565b60405180910390a350600192915050565b4790565b6001600160a01b0383166000908152600360205260408120548211156102b357600080fd5b6001600160a01b038416331461032c576001600160a01b03841660009081526004602090815260408083203384529091529020548211156102f357600080fd5b6001600160a01b0384166000908152600460209081526040808320338452909152812080548492906103269084906106af565b90915550505b6001600160a01b038416600090815260036020526040812080548492906103549084906106af565b90915550506001600160a01b03831660009081526003602052604081208054849290610381908490610697565b92505081905550826001600160a01b0316846001600160a01b03167fddf252ad1be2c89b69c2b068fc378daa952ba7f163c4a11628f55a4df523b3ef846040516103cb9190610680565b60405180910390a35060019392505050565b336000908152600360205260409020548111156103f957600080fd5b33600090815260036020526040812080548392906104189084906106af565b9091555050604051339082156108fc029083906000818181858888f1935050505015801561044a573d6000803e3d6000fd5b50336001600160a01b03167f7fcf532c15f0a6db0bd6d0e038bea71d30d808c7d98cb3bf7268a95bf5081b65826040516104849190610680565b60405180910390a250565b60025460ff1681565b60036020526000908152604090205481565b6001805461019f906106c6565b60006104c433848461028e565b9392505050565b33600090815260036020526040812080548392906104ea908490610697565b909155505060405133907fe1fffcc4923d04b559f4d29a8bfc6cda04eb5b0d3c460751c2402c5c5cc9109c90610484908490610680565b600460209081526000928352604080842090915290825290205481565b80356001600160a01b038116811461055557600080fd5b919050565b60006020828403121561056b578081fd5b6104c48261053e565b60008060408385031215610586578081fd5b61058f8361053e565b915061059d6020840161053e565b90509250929050565b6000806000606084860312156105ba578081fd5b6105c38461053e565b92506105d16020850161053e565b9150604084013590509250925092565b600080604083850312156105f3578182fd5b6105fc8361053e565b946020939093013593505050565b60006020828403121561061b578081fd5b5035919050565b901515815260200190565b6000602080835283518082850152825b818110156106595785810183015185820160400152820161063d565b8181111561066a5783604083870101525b50601f01601f1916929092016040019392505050565b90815260200190565b60ff91909116815260200190565b600082198211156106aa576106aa610701565b500190565b6000828210156106c1576106c1610701565b500390565b6002810460018216806106da57607f821691505b602082108114156106fb57634e487b7160e01b600052602260045260246000fd5b50919050565b634e487b7160e01b600052601160045260246000fdfea2646970667358221220f901cd863d1ba1ebf91e362f1c72c2ff58cceff704d46b81174ea4d0ae5b352064736f6c63430008000033",
  "immutableReferences": {},
  "source": "// SPDX-License-Identifier: MIT\r\npragma solidity ^0.8;\r\n\r\ncontract ERC20 {\r\n    string public name     = \"ERC20\";\r\n    string public symbol   = \"WETH\";\r\n    uint8  public decimals = 18;\r\n\r\n    event  Approval(address indexed src, address indexed guy, uint wad);\r\n    event  Transfer(address indexed src, address indexed dst, uint wad);\r\n    event  Deposit(address indexed dst, uint wad);\r\n    event  Withdrawal(address indexed src, uint wad);\r\n\r\n    mapping (address => uint)                       public  balanceOf;\r\n    mapping (address => mapping (address => uint))  public  allowance;\r\n\r\n    function deposit(uint256 amount) public {\r\n        balanceOf[msg.sender] += amount;\r\n        emit Deposit(msg.sender, amount);\r\n    }\r\n\r\n    function withdraw(uint wad) public {\r\n        require(balanceOf[msg.sender] >= wad);\r\n        balanceOf[msg.sender] -= wad;\r\n        payable(msg.sender).transfer(wad);\r\n        emit Withdrawal(msg.sender, wad);\r\n    }\r\n\r\n    function totalSupply() public view returns (uint) {\r\n        return address(this).balance;\r\n    }\r\n\r\n    function approve(address guy, uint wad) public returns (bool) {\r\n        allowance[msg.sender][guy] = wad;\r\n        emit Approval(msg.sender, guy, wad);\r\n        return true;\r\n    }\r\n\r\n    function transfer(address dst, uint wad) public returns (bool) {\r\n        return transferFrom(msg.sender, dst, wad);\r\n    }\r\n\r\n    function transferFrom(address src, address dst, uint wad)\r\n        public\r\n        returns (bool)\r\n    {\r\n        require(balanceOf[src] >= wad);\r\n\r\n        if (src != msg.sender) {\r\n            require(allowance[src][msg.sender] >= wad);\r\n            allowance[src][msg.sender] -= wad;\r\n        }\r\n\r\n        balanceOf[src] -= wad;\r\n        balanceOf[dst] += wad;\r\n\r\n        emit Transfer(src, dst, wad);\r\n\r\n        return true;\r\n    }\r\n}\r\n",
  "sourcePath": "C:\\Users\\Oksana\\Documents\\CriptoStribe\\contracts\\ERC20.sol",
  "compiler": {
    "name": "solc",
    "version": "0.8.0+commit.c7dfd78e.Emscripten.clang"
  },
  "schemaVersion": "3.4.4",
  "updatedAt": "2022-02-18T19:37:07.092Z",
  "devdoc": {
    "kind": "dev",
    "methods": {},
    "version": 1
  },
  "userdoc": {
    "kind": "user",
    "methods": {},
    "version": 1
  }
}